{
  "contractName": "OliveOilProductionChain",
  "abi": [
    {
      "inputs": [],
      "stateMutability": "nonpayable",
      "type": "constructor"
    },
    {
      "anonymous": false,
      "inputs": [
        {
          "indexed": false,
          "internalType": "uint256",
          "name": "batchId",
          "type": "uint256"
        }
      ],
      "name": "FinalizedBatch",
      "type": "event"
    },
    {
      "anonymous": false,
      "inputs": [
        {
          "indexed": false,
          "internalType": "uint256",
          "name": "batchId",
          "type": "uint256"
        }
      ],
      "name": "NewBatch",
      "type": "event"
    },
    {
      "anonymous": false,
      "inputs": [
        {
          "indexed": true,
          "internalType": "bytes32",
          "name": "role",
          "type": "bytes32"
        },
        {
          "indexed": true,
          "internalType": "bytes32",
          "name": "previousAdminRole",
          "type": "bytes32"
        },
        {
          "indexed": true,
          "internalType": "bytes32",
          "name": "newAdminRole",
          "type": "bytes32"
        }
      ],
      "name": "RoleAdminChanged",
      "type": "event"
    },
    {
      "anonymous": false,
      "inputs": [
        {
          "indexed": true,
          "internalType": "bytes32",
          "name": "role",
          "type": "bytes32"
        },
        {
          "indexed": true,
          "internalType": "address",
          "name": "account",
          "type": "address"
        },
        {
          "indexed": true,
          "internalType": "address",
          "name": "sender",
          "type": "address"
        }
      ],
      "name": "RoleGranted",
      "type": "event"
    },
    {
      "anonymous": false,
      "inputs": [
        {
          "indexed": true,
          "internalType": "bytes32",
          "name": "role",
          "type": "bytes32"
        },
        {
          "indexed": true,
          "internalType": "address",
          "name": "account",
          "type": "address"
        },
        {
          "indexed": true,
          "internalType": "address",
          "name": "sender",
          "type": "address"
        }
      ],
      "name": "RoleRevoked",
      "type": "event"
    },
    {
      "inputs": [],
      "name": "DEFAULT_ADMIN_ROLE",
      "outputs": [
        {
          "internalType": "bytes32",
          "name": "",
          "type": "bytes32"
        }
      ],
      "stateMutability": "view",
      "type": "function",
      "constant": true
    },
    {
      "inputs": [],
      "name": "FARMER_ROLE",
      "outputs": [
        {
          "internalType": "bytes32",
          "name": "",
          "type": "bytes32"
        }
      ],
      "stateMutability": "view",
      "type": "function",
      "constant": true
    },
    {
      "inputs": [],
      "name": "ONH_ROLE",
      "outputs": [
        {
          "internalType": "bytes32",
          "name": "",
          "type": "bytes32"
        }
      ],
      "stateMutability": "view",
      "type": "function",
      "constant": true
    },
    {
      "inputs": [],
      "name": "PRESSING_ROLE",
      "outputs": [
        {
          "internalType": "bytes32",
          "name": "",
          "type": "bytes32"
        }
      ],
      "stateMutability": "view",
      "type": "function",
      "constant": true
    },
    {
      "inputs": [],
      "name": "TRANSPORTER_ROLE",
      "outputs": [
        {
          "internalType": "bytes32",
          "name": "",
          "type": "bytes32"
        }
      ],
      "stateMutability": "view",
      "type": "function",
      "constant": true
    },
    {
      "inputs": [
        {
          "internalType": "uint256",
          "name": "",
          "type": "uint256"
        }
      ],
      "name": "batches",
      "outputs": [
        {
          "components": [
            {
              "internalType": "string",
              "name": "farmer",
              "type": "string"
            },
            {
              "internalType": "string",
              "name": "date",
              "type": "string"
            },
            {
              "internalType": "string",
              "name": "location",
              "type": "string"
            },
            {
              "internalType": "string",
              "name": "method",
              "type": "string"
            },
            {
              "internalType": "uint256",
              "name": "quantity",
              "type": "uint256"
            },
            {
              "internalType": "string",
              "name": "variety",
              "type": "string"
            }
          ],
          "internalType": "struct OliveOilProductionChain.Harvesting",
          "name": "harvesting",
          "type": "tuple"
        },
        {
          "components": [
            {
              "internalType": "uint256",
              "name": "duration",
              "type": "uint256"
            },
            {
              "internalType": "string",
              "name": "conditions",
              "type": "string"
            },
            {
              "internalType": "string",
              "name": "transporterId",
              "type": "string"
            },
            {
              "internalType": "string",
              "name": "vehicleType",
              "type": "string"
            }
          ],
          "internalType": "struct OliveOilProductionChain.Transportation",
          "name": "transportation",
          "type": "tuple"
        },
        {
          "components": [
            {
              "internalType": "uint256",
              "name": "duration",
              "type": "uint256"
            },
            {
              "internalType": "string",
              "name": "pressingId",
              "type": "string"
            },
            {
              "internalType": "string",
              "name": "conditions",
              "type": "string"
            },
            {
              "internalType": "uint256",
              "name": "temperature",
              "type": "uint256"
            },
            {
              "internalType": "uint256",
              "name": "humidity",
              "type": "uint256"
            },
            {
              "internalType": "uint256",
              "name": "goodOlives",
              "type": "uint256"
            },
            {
              "internalType": "uint256",
              "name": "badOlives",
              "type": "uint256"
            }
          ],
          "internalType": "struct OliveOilProductionChain.StorageBeforePressing",
          "name": "storageBeforePressing",
          "type": "tuple"
        },
        {
          "components": [
            {
              "internalType": "string",
              "name": "date",
              "type": "string"
            },
            {
              "internalType": "string",
              "name": "pressingId",
              "type": "string"
            },
            {
              "internalType": "string",
              "name": "facility",
              "type": "string"
            },
            {
              "internalType": "string",
              "name": "method",
              "type": "string"
            },
            {
              "internalType": "string",
              "name": "conditions",
              "type": "string"
            },
            {
              "internalType": "uint256",
              "name": "temperature",
              "type": "uint256"
            },
            {
              "internalType": "uint256",
              "name": "pressure",
              "type": "uint256"
            },
            {
              "internalType": "string",
              "name": "operatorName",
              "type": "string"
            }
          ],
          "internalType": "struct OliveOilProductionChain.PressingProcess",
          "name": "pressingProcess",
          "type": "tuple"
        },
        {
          "components": [
            {
              "internalType": "string",
              "name": "tankId",
              "type": "string"
            },
            {
              "internalType": "string",
              "name": "pressingId",
              "type": "string"
            },
            {
              "internalType": "uint256",
              "name": "duration",
              "type": "uint256"
            },
            {
              "internalType": "string",
              "name": "conditions",
              "type": "string"
            },
            {
              "internalType": "uint256",
              "name": "temperature",
              "type": "uint256"
            },
            {
              "internalType": "uint256",
              "name": "humidity",
              "type": "uint256"
            },
            {
              "internalType": "bool",
              "name": "inertAtmosphere",
              "type": "bool"
            }
          ],
          "internalType": "struct OliveOilProductionChain.StorageAfterPressing",
          "name": "storageAfterPressing",
          "type": "tuple"
        },
        {
          "components": [
            {
              "internalType": "string",
              "name": "lab",
              "type": "string"
            },
            {
              "internalType": "string",
              "name": "onhId",
              "type": "string"
            },
            {
              "internalType": "uint256",
              "name": "acidity",
              "type": "uint256"
            },
            {
              "internalType": "string",
              "name": "quality",
              "type": "string"
            },
            {
              "internalType": "string",
              "name": "area",
              "type": "string"
            },
            {
              "internalType": "uint256",
              "name": "peroxideValue",
              "type": "uint256"
            },
            {
              "internalType": "bool",
              "name": "certifiedOrganic",
              "type": "bool"
            }
          ],
          "internalType": "struct OliveOilProductionChain.QualityCheck",
          "name": "qualityCheck",
          "type": "tuple"
        },
        {
          "internalType": "bool",
          "name": "isFinalized",
          "type": "bool"
        }
      ],
      "stateMutability": "view",
      "type": "function",
      "constant": true
    },
    {
      "inputs": [
        {
          "internalType": "address",
          "name": "",
          "type": "address"
        },
        {
          "internalType": "uint256",
          "name": "",
          "type": "uint256"
        }
      ],
      "name": "farmerBatches",
      "outputs": [
        {
          "internalType": "uint256",
          "name": "",
          "type": "uint256"
        }
      ],
      "stateMutability": "view",
      "type": "function",
      "constant": true
    },
    {
      "inputs": [
        {
          "internalType": "bytes32",
          "name": "role",
          "type": "bytes32"
        }
      ],
      "name": "getRoleAdmin",
      "outputs": [
        {
          "internalType": "bytes32",
          "name": "",
          "type": "bytes32"
        }
      ],
      "stateMutability": "view",
      "type": "function",
      "constant": true
    },
    {
      "inputs": [
        {
          "internalType": "bytes32",
          "name": "role",
          "type": "bytes32"
        },
        {
          "internalType": "address",
          "name": "account",
          "type": "address"
        }
      ],
      "name": "grantRole",
      "outputs": [],
      "stateMutability": "nonpayable",
      "type": "function"
    },
    {
      "inputs": [
        {
          "internalType": "bytes32",
          "name": "role",
          "type": "bytes32"
        },
        {
          "internalType": "address",
          "name": "account",
          "type": "address"
        }
      ],
      "name": "hasRole",
      "outputs": [
        {
          "internalType": "bool",
          "name": "",
          "type": "bool"
        }
      ],
      "stateMutability": "view",
      "type": "function",
      "constant": true
    },
    {
      "inputs": [
        {
          "internalType": "bytes32",
          "name": "role",
          "type": "bytes32"
        },
        {
          "internalType": "address",
          "name": "account",
          "type": "address"
        }
      ],
      "name": "renounceRole",
      "outputs": [],
      "stateMutability": "nonpayable",
      "type": "function"
    },
    {
      "inputs": [
        {
          "internalType": "bytes32",
          "name": "role",
          "type": "bytes32"
        },
        {
          "internalType": "address",
          "name": "account",
          "type": "address"
        }
      ],
      "name": "revokeRole",
      "outputs": [],
      "stateMutability": "nonpayable",
      "type": "function"
    },
    {
      "inputs": [
        {
          "internalType": "bytes4",
          "name": "interfaceId",
          "type": "bytes4"
        }
      ],
      "name": "supportsInterface",
      "outputs": [
        {
          "internalType": "bool",
          "name": "",
          "type": "bool"
        }
      ],
      "stateMutability": "view",
      "type": "function",
      "constant": true
    },
    {
      "inputs": [
        {
          "internalType": "string",
          "name": "farmer",
          "type": "string"
        },
        {
          "internalType": "string",
          "name": "harvestDate",
          "type": "string"
        },
        {
          "internalType": "string",
          "name": "location",
          "type": "string"
        },
        {
          "internalType": "string",
          "name": "method",
          "type": "string"
        },
        {
          "internalType": "uint256",
          "name": "quantity",
          "type": "uint256"
        },
        {
          "internalType": "string",
          "name": "variety",
          "type": "string"
        }
      ],
      "name": "createBatch",
      "outputs": [
        {
          "internalType": "uint256",
          "name": "batchId",
          "type": "uint256"
        }
      ],
      "stateMutability": "nonpayable",
      "type": "function"
    },
    {
      "inputs": [
        {
          "internalType": "uint256",
          "name": "batchId",
          "type": "uint256"
        },
        {
          "internalType": "uint256",
          "name": "duration",
          "type": "uint256"
        },
        {
          "internalType": "string",
          "name": "conditions",
          "type": "string"
        },
        {
          "internalType": "string",
          "name": "transporterId",
          "type": "string"
        },
        {
          "internalType": "string",
          "name": "vehicleType",
          "type": "string"
        }
      ],
      "name": "logTransportation",
      "outputs": [],
      "stateMutability": "nonpayable",
      "type": "function"
    },
    {
      "inputs": [
        {
          "internalType": "uint256",
          "name": "batchId",
          "type": "uint256"
        },
        {
          "internalType": "string",
          "name": "pressingId",
          "type": "string"
        },
        {
          "internalType": "uint256",
          "name": "duration",
          "type": "uint256"
        },
        {
          "internalType": "string",
          "name": "conditions",
          "type": "string"
        },
        {
          "internalType": "uint256",
          "name": "temperature",
          "type": "uint256"
        },
        {
          "internalType": "uint256",
          "name": "humidity",
          "type": "uint256"
        },
        {
          "internalType": "uint256",
          "name": "goodOlives",
          "type": "uint256"
        },
        {
          "internalType": "uint256",
          "name": "badOlives",
          "type": "uint256"
        }
      ],
      "name": "logStorageBeforePressing",
      "outputs": [],
      "stateMutability": "nonpayable",
      "type": "function"
    },
    {
      "inputs": [
        {
          "internalType": "uint256",
          "name": "batchId",
          "type": "uint256"
        },
        {
          "internalType": "string",
          "name": "pressingId",
          "type": "string"
        },
        {
          "internalType": "string",
          "name": "date",
          "type": "string"
        },
        {
          "internalType": "string",
          "name": "facility",
          "type": "string"
        },
        {
          "internalType": "string",
          "name": "method",
          "type": "string"
        },
        {
          "internalType": "string",
          "name": "conditions",
          "type": "string"
        },
        {
          "internalType": "uint256",
          "name": "temperature",
          "type": "uint256"
        },
        {
          "internalType": "uint256",
          "name": "pressure",
          "type": "uint256"
        },
        {
          "internalType": "string",
          "name": "operatorName",
          "type": "string"
        }
      ],
      "name": "logPressingProcess",
      "outputs": [],
      "stateMutability": "nonpayable",
      "type": "function"
    },
    {
      "inputs": [
        {
          "internalType": "uint256",
          "name": "batchId",
          "type": "uint256"
        },
        {
          "internalType": "string",
          "name": "pressingId",
          "type": "string"
        },
        {
          "internalType": "string",
          "name": "tankId",
          "type": "string"
        },
        {
          "internalType": "uint256",
          "name": "duration",
          "type": "uint256"
        },
        {
          "internalType": "string",
          "name": "conditions",
          "type": "string"
        },
        {
          "internalType": "uint256",
          "name": "temperature",
          "type": "uint256"
        },
        {
          "internalType": "uint256",
          "name": "humidity",
          "type": "uint256"
        },
        {
          "internalType": "bool",
          "name": "inertAtmosphere",
          "type": "bool"
        }
      ],
      "name": "logStorageAfterPressing",
      "outputs": [],
      "stateMutability": "nonpayable",
      "type": "function"
    },
    {
      "inputs": [
        {
          "internalType": "uint256",
          "name": "batchId",
          "type": "uint256"
        },
        {
          "internalType": "string",
          "name": "onhId",
          "type": "string"
        },
        {
          "internalType": "string",
          "name": "lab",
          "type": "string"
        },
        {
          "internalType": "uint256",
          "name": "acidityScaled",
          "type": "uint256"
        },
        {
          "internalType": "string",
          "name": "quality",
          "type": "string"
        },
        {
          "internalType": "string",
          "name": "area",
          "type": "string"
        },
        {
          "internalType": "uint256",
          "name": "peroxideValueScaled",
          "type": "uint256"
        },
        {
          "internalType": "bool",
          "name": "certifiedOrganic",
          "type": "bool"
        }
      ],
      "name": "logQualityCheck",
      "outputs": [],
      "stateMutability": "nonpayable",
      "type": "function"
    },
    {
      "inputs": [
        {
          "internalType": "uint256",
          "name": "batchId",
          "type": "uint256"
        }
      ],
      "name": "getBatch",
      "outputs": [
        {
          "components": [
            {
              "components": [
                {
                  "internalType": "string",
                  "name": "farmer",
                  "type": "string"
                },
                {
                  "internalType": "string",
                  "name": "date",
                  "type": "string"
                },
                {
                  "internalType": "string",
                  "name": "location",
                  "type": "string"
                },
                {
                  "internalType": "string",
                  "name": "method",
                  "type": "string"
                },
                {
                  "internalType": "uint256",
                  "name": "quantity",
                  "type": "uint256"
                },
                {
                  "internalType": "string",
                  "name": "variety",
                  "type": "string"
                }
              ],
              "internalType": "struct OliveOilProductionChain.Harvesting",
              "name": "harvesting",
              "type": "tuple"
            },
            {
              "components": [
                {
                  "internalType": "uint256",
                  "name": "duration",
                  "type": "uint256"
                },
                {
                  "internalType": "string",
                  "name": "conditions",
                  "type": "string"
                },
                {
                  "internalType": "string",
                  "name": "transporterId",
                  "type": "string"
                },
                {
                  "internalType": "string",
                  "name": "vehicleType",
                  "type": "string"
                }
              ],
              "internalType": "struct OliveOilProductionChain.Transportation",
              "name": "transportation",
              "type": "tuple"
            },
            {
              "components": [
                {
                  "internalType": "uint256",
                  "name": "duration",
                  "type": "uint256"
                },
                {
                  "internalType": "string",
                  "name": "pressingId",
                  "type": "string"
                },
                {
                  "internalType": "string",
                  "name": "conditions",
                  "type": "string"
                },
                {
                  "internalType": "uint256",
                  "name": "temperature",
                  "type": "uint256"
                },
                {
                  "internalType": "uint256",
                  "name": "humidity",
                  "type": "uint256"
                },
                {
                  "internalType": "uint256",
                  "name": "goodOlives",
                  "type": "uint256"
                },
                {
                  "internalType": "uint256",
                  "name": "badOlives",
                  "type": "uint256"
                }
              ],
              "internalType": "struct OliveOilProductionChain.StorageBeforePressing",
              "name": "storageBeforePressing",
              "type": "tuple"
            },
            {
              "components": [
                {
                  "internalType": "string",
                  "name": "date",
                  "type": "string"
                },
                {
                  "internalType": "string",
                  "name": "pressingId",
                  "type": "string"
                },
                {
                  "internalType": "string",
                  "name": "facility",
                  "type": "string"
                },
                {
                  "internalType": "string",
                  "name": "method",
                  "type": "string"
                },
                {
                  "internalType": "string",
                  "name": "conditions",
                  "type": "string"
                },
                {
                  "internalType": "uint256",
                  "name": "temperature",
                  "type": "uint256"
                },
                {
                  "internalType": "uint256",
                  "name": "pressure",
                  "type": "uint256"
                },
                {
                  "internalType": "string",
                  "name": "operatorName",
                  "type": "string"
                }
              ],
              "internalType": "struct OliveOilProductionChain.PressingProcess",
              "name": "pressingProcess",
              "type": "tuple"
            },
            {
              "components": [
                {
                  "internalType": "string",
                  "name": "tankId",
                  "type": "string"
                },
                {
                  "internalType": "string",
                  "name": "pressingId",
                  "type": "string"
                },
                {
                  "internalType": "uint256",
                  "name": "duration",
                  "type": "uint256"
                },
                {
                  "internalType": "string",
                  "name": "conditions",
                  "type": "string"
                },
                {
                  "internalType": "uint256",
                  "name": "temperature",
                  "type": "uint256"
                },
                {
                  "internalType": "uint256",
                  "name": "humidity",
                  "type": "uint256"
                },
                {
                  "internalType": "bool",
                  "name": "inertAtmosphere",
                  "type": "bool"
                }
              ],
              "internalType": "struct OliveOilProductionChain.StorageAfterPressing",
              "name": "storageAfterPressing",
              "type": "tuple"
            },
            {
              "components": [
                {
                  "internalType": "string",
                  "name": "lab",
                  "type": "string"
                },
                {
                  "internalType": "string",
                  "name": "onhId",
                  "type": "string"
                },
                {
                  "internalType": "uint256",
                  "name": "acidity",
                  "type": "uint256"
                },
                {
                  "internalType": "string",
                  "name": "quality",
                  "type": "string"
                },
                {
                  "internalType": "string",
                  "name": "area",
                  "type": "string"
                },
                {
                  "internalType": "uint256",
                  "name": "peroxideValue",
                  "type": "uint256"
                },
                {
                  "internalType": "bool",
                  "name": "certifiedOrganic",
                  "type": "bool"
                }
              ],
              "internalType": "struct OliveOilProductionChain.QualityCheck",
              "name": "qualityCheck",
              "type": "tuple"
            },
            {
              "internalType": "bool",
              "name": "isFinalized",
              "type": "bool"
            }
          ],
          "internalType": "struct OliveOilProductionChain.Batch",
          "name": "",
          "type": "tuple"
        }
      ],
      "stateMutability": "view",
      "type": "function",
      "constant": true
    },
    {
      "inputs": [
        {
          "internalType": "uint256",
          "name": "batchId",
          "type": "uint256"
        }
      ],
      "name": "getHarvestDetails",
      "outputs": [
        {
          "internalType": "string",
          "name": "farmer",
          "type": "string"
        },
        {
          "internalType": "string",
          "name": "date",
          "type": "string"
        },
        {
          "internalType": "string",
          "name": "location",
          "type": "string"
        },
        {
          "internalType": "string",
          "name": "method",
          "type": "string"
        }
      ],
      "stateMutability": "view",
      "type": "function",
      "constant": true
    },
    {
      "inputs": [],
      "name": "getBatchCount",
      "outputs": [
        {
          "internalType": "uint256",
          "name": "",
          "type": "uint256"
        }
      ],
      "stateMutability": "view",
      "type": "function",
      "constant": true
    },
    {
      "inputs": [
        {
          "internalType": "address",
          "name": "farmer",
          "type": "address"
        }
      ],
      "name": "getBatchesByFarmer",
      "outputs": [
        {
          "internalType": "uint256[]",
          "name": "",
          "type": "uint256[]"
        }
      ],
      "stateMutability": "view",
      "type": "function",
      "constant": true
    },
    {
      "inputs": [
        {
          "internalType": "uint256",
          "name": "batchId",
          "type": "uint256"
        }
      ],
      "name": "getAcidity",
      "outputs": [
        {
          "internalType": "string",
          "name": "",
          "type": "string"
        }
      ],
      "stateMutability": "view",
      "type": "function",
      "constant": true
    },
    {
      "inputs": [
        {
          "internalType": "uint256",
          "name": "batchId",
          "type": "uint256"
        }
      ],
      "name": "getPeroxideValue",
      "outputs": [
        {
          "internalType": "string",
          "name": "",
          "type": "string"
        }
      ],
      "stateMutability": "view",
      "type": "function",
      "constant": true
    },
    {
      "inputs": [
        {
          "internalType": "string",
          "name": "transporterId",
          "type": "string"
        }
      ],
      "name": "getBatchesByTransporter",
      "outputs": [
        {
          "internalType": "uint256[]",
          "name": "",
          "type": "uint256[]"
        }
      ],
      "stateMutability": "view",
      "type": "function",
      "constant": true
    },
    {
      "inputs": [
        {
          "internalType": "string",
          "name": "pressingId",
          "type": "string"
        }
      ],
      "name": "getBatchesByPressingId",
      "outputs": [
        {
          "internalType": "uint256[]",
          "name": "",
          "type": "uint256[]"
        }
      ],
      "stateMutability": "view",
      "type": "function",
      "constant": true
    },
    {
      "inputs": [
        {
          "internalType": "string",
          "name": "onhId",
          "type": "string"
        }
      ],
      "name": "getBatchesByOnhId",
      "outputs": [
        {
          "internalType": "uint256[]",
          "name": "",
          "type": "uint256[]"
        }
      ],
      "stateMutability": "view",
      "type": "function",
      "constant": true
    }
  ],
  "bytecode": "0x6080604081815234620002c457600090818052602090828252808320733d74f93668f357238030105a1a773e13b6d8d87890818552835260ff8285205416156200028b575b507f7c6181838a71a779e445600d4c6ecbe16bacf2b3c5bda69c29fada66d1b645d180845283835281842073cda995778ee0d3e36b0860c76fe763223f53265e90818652845260ff83862054161562000252575b50507fddaa901e2fe3bda354fe0ede2785152d5c109282a613fe024a056a3e66c41bb3808452838352818420736d2bd0ca60668083b7a173db39948aa9f781689d90818652845260ff83862054161562000219575b50507f7bc22597b932d7034dd2d258199090b37f9a59226c150db7fa910207f1c0ff9a8084528383528184207380b0bd05a2580445e9d11d9d3308185d06c3bc2190818652845260ff838620541615620001e0575b50507f64400d3a08c4daec65d903c105722c54dce87fceeab435cccc2cdf93dda1d95e908184528383528084209273300abb72a5cc05f809b68de4afcd2dd5b021fa2193848652815260ff828620541615620001a6575b61596e8681620002ca8239f35b82855284815281852090848652528320600160ff1982541617905560008051602062005c38833981519152339380a4388080808062000199565b8185528484528285208186528452828520805460ff19166001179055339160008051602062005c388339815191528680a4388062000142565b8185528484528285208186528452828520805460ff19166001179055339160008051602062005c388339815191528680a43880620000ed565b8185528484528285208186528452828520805460ff19166001179055339160008051602062005c388339815191528680a4388062000098565b8380528383528184208185528352818420805460ff1916600117905533908460008051602062005c388339815191528180a43862000044565b600080fdfe608080604052600436101561001357600080fd5b60003560e01c90816301ffc9a714614ab95750806305346476146143ab5780632175e4f7146142b8578063248a9ca3146142895780632f2ff15d146141d657806330167163146140e357806336568abe14614051578063452180d914613c035780634eabbe7714613bc857806359b9911114613ab75780635ac442821461381057806364e3ff53146137b85780636b60a4a4146137345780636f86207e146136f957806375c3018b146115ec578063781e1fad146115b45780637baa69df1461151c57806391d14854146114cf5780639327408e14610cf95780639e2ba76314610c65578063a217fddf14610c49578063a8fabfa514610c2b578063b32c4d8d14610b3a578063b80f820014610523578063d547741f146104e2578063d9f64628146101ce578063f0cf6fc8146101935763f39439701461015357600080fd5b3461018e57600036600319011261018e5760206040517f7c6181838a71a779e445600d4c6ecbe16bacf2b3c5bda69c29fada66d1b645d18152f35b600080fd5b3461018e57600036600319011261018e5760206040517f7bc22597b932d7034dd2d258199090b37f9a59226c150db7fa910207f1c0ff9a8152f35b3461018e5761010036600319011261018e576001600160401b0360043560243582811161018e57610203903690600401614bd0565b9060643583811161018e5761021c903690600401614bd0565b9161022561536a565b61023260015483106157a9565b6040519261023f84614b0c565b60443584526020840191825260408401908152606084016084358152608085019160a435835260a086019360c435855261028160c088019660e4358852614f44565b509651600a8801555196875181811161040057806102a2600b8a0154614f7f565b99601f9a8b811161048e575b506020908b831160011461042157600092610416575b50508160011b916000199060031b1c191617600b8801555b600c87019151978851918211610400576102f68354614f7f565b8181116103bb575b50602090821160011461035157819060109899600092610346575b50508160011b916000199060031b1c19161790555b51600d86015551600e85015551600f84015551910155005b015190508980610319565b601f198216988360005260206000209960005b8181106103a35750916010999a9184600195941061038a575b505050811b01905561032e565b015160001960f88460031b161c1916905589808061037d565b838301518c556001909b019a60209384019301610364565b8360005260206000208280850160051c820192602086106103f7575b0160051c01905b8181106103eb57506102fe565b600081556001016103de565b925081926103d7565b634e487b7160e01b600052604160045260246000fd5b015190508a806102c4565b600b8b016000908152602081209350601f198516905b818110610476575090846001959493921061045d575b505050811b01600b8801556102dc565b015160001960f88460031b161c191690558a808061044d565b92936020600181928786015181550195019301610437565b909150600b8a0160005260206000208b80850160051c820192602086106104d9575b9085949392910160051c01905b8181106104ca57506102ae565b600081558493506001016104bd565b925081926104b0565b3461018e57604036600319011261018e57610521600435610501614c61565b9080600052600060205261051c600160406000200154615557565b615656565b005b3461018e5760a036600319011261018e576004356001600160401b0360443581811161018e57610557903690600401614bd0565b9060643581811161018e57610570903690600401614bd0565b60843582811161018e57610588903690600401614bd0565b3360009081527fbce5fd3347e0dc338dcc0e895534dd4af2740eec95f56cd4ca4b4b2ada357ca06020908152604090912054919590917fddaa901e2fe3bda354fe0ede2785152d5c109282a613fe024a056a3e66c41bb39060ff16156109aa57506001946105f8865483106157a9565b61060e600861060684614f44565b500154614f7f565b610965576106406040519261062284614b42565b60243584528484019283526040840195865260608401988952614f44565b509151600683015551928351858111610400576007830190806106638354614f7f565b96601f97888111610914575b5086908883116001146108b1576000926108a6575b5050600019600383901b1c191690881b1790555b5180516008830191868211610400576106b18354614f7f565b868111610860575b5084908683116001146107f857600994939291600091836107ed575b5050600019600383901b1c191690881b1790555b019451908151938411610400576107008654614f7f565b8381116107a7575b50809284116001146107445750928293918392600094610739575b50501b916000199060031b1c1916179055600080f35b015192508580610723565b919083601f1981168760005284600020946000905b8883831061078d5750505010610774575b505050811b019055005b015160001960f88460031b161c1916905583808061076a565b858701518855909601959485019487935090810190610759565b86600052816000208480870160051c8201928488106107e4575b0160051c019086905b8281106107d8575050610708565b600081550186906107ca565b925081926107c1565b015190508a806106d5565b9392918891601f1982169084600052876000209160005b8982821061084a575050968360099810610831575b505050811b0190556106e9565b015160001960f88460031b161c191690558a8080610824565b838a015185558d9690940193928301920161080f565b83600052856000208780850160051c82019288861061089d575b0160051c019089905b8281106108915750506106b9565b60008155018990610883565b9250819261087a565b015190508a80610684565b908a9350601f1983169185600052886000209260005b8a8282106108fe57505084116108e5575b505050811b019055610698565b015160001960f88460031b161c191690558a80806108d8565b8385015186558e979095019493840193016108c7565b90915083600052866000208880850160051c82019289861061095c575b918c91869594930160051c01915b82811061094d57505061066f565b600081558594508c910161093f565b92508192610931565b60405162461bcd60e51b815260048101849052601960248201527f426174636820616c7265616479207472616e73706f72746564000000000000006044820152606490fd5b826109b4336156fe565b916040516109c181614b42565b60428152828101916060368437815115610b2457603083538151600190811015610b2457607860218401536041905b808211610ae0575050610a9d57610a6993610a789260489260405196879376020b1b1b2b9b9a1b7b73a3937b61d1030b1b1b7bab73a1604d1b88860152610a40815180928a603789019101614c8d565b8401917001034b99036b4b9b9b4b733903937b6329607d1b603784015251809386840190614c8d565b01036028810185520183614b94565b610a9960405192839262461bcd60e51b845260048401526024830190614cb0565b0390fd5b6064836040519062461bcd60e51b825280600483015260248201527f537472696e67733a20686578206c656e67746820696e73756666696369656e746044820152fd5b9091600f8116906010821015610b2457610b1e916f181899199a1a9b1b9c1cb0b131b232b360811b901a610b1485876156ca565b5360041c926156db565b906109f0565b634e487b7160e01b600052603260045260246000fd5b3461018e57602036600319011261018e5760043560015481101561018e57610b6190614f44565b5060e0610b6d8261504f565b91610c1f610b7d600683016150e4565b91610c11610b8d600a8301615140565b610c03610b9c601185016151ae565b610bf5610bab6019870161525a565b93610be760ff6027610bbf60208b016152dc565b9901541699610bd96040519d8d8f9e8f9081520190614cd5565b8c810360208e015290614d4b565b908a820360408c0152614d94565b9088820360608a0152614ddf565b908682036080880152614e71565b9084820360a0860152614ec9565b90151560c08301520390f35b3461018e57600036600319011261018e576020600154604051908152f35b3461018e57600036600319011261018e57602060405160008152f35b3461018e57602036600319011261018e57610ccb610c9a610c94600435610c8f60015482106157a9565b614f44565b5061504f565b610cf5815191610ce7602082015191610cd96060604083015192015193604051978897608089526080890190614cb0565b908782036020890152614cb0565b908582036040870152614cb0565b908382036060850152614cb0565b0390f35b3461018e5761012036600319011261018e576004356024356001600160401b03811161018e57610d2d903690600401614bd0565b6044356001600160401b03811161018e57610d4c903690600401614bd0565b916064356001600160401b03811161018e57610d6c903690600401614bd0565b916084356001600160401b03811161018e57610d8c903690600401614bd0565b60a4356001600160401b03811161018e57610dab903690600401614bd0565b9061010435946001600160401b03861161018e57610dd0610e23963690600401614bd0565b93610dd961536a565b610de660015487106157a9565b60405197610df389614b5d565b8852602088015260408701526060860152608085015260c43560a085015260e43560c085015260e0840152614f44565b5081519182516001600160401b03811161040057610e446011840154614f7f565b601f8111611488575b506020601f821160011461141a578192939460009261140f575b50508160011b916000199060031b1c19161760118301555b60208101519182516001600160401b03811161040057610ea26012830154614f7f565b601f81116113c8575b506020601f821160011461135a578192939460009261134f575b50508160011b916000199060031b1c19161760128201555b60408201519182516001600160401b03811161040057610f006013840154614f7f565b601f8111611308575b506020601f821160011461129a578192939460009261128f575b50508160011b916000199060031b1c19161760138301555b60608101519182516001600160401b03811161040057610f5e6014830154614f7f565b601f8111611248575b506020601f82116001146111da57819293946000926111cf575b50508160011b916000199060031b1c19161760148201555b60808201518051906001600160401b03821161040057610fbc6015840154614f7f565b601f8111611184575b50602090601f831160011461111157918060e09492601894600092611106575b50508160011b916000199060031b1c19161760158201555b60a0840151601682015560c08401516017820155019101519081516001600160401b038111610400576110308254614f7f565b601f81116110be575b50602092601f8211600114611077579281929360009261106c575b5050600019600383901b1c191660019190911b179055005b015190508380611054565b601f198216938360005260206000209160005b8681106110a6575083600195961061077457505050811b019055005b9192602060018192868501518155019401920161108a565b826000526020600020601f830160051c810191602084106110fc575b601f0160051c01905b8181106110f05750611039565b600081556001016110e3565b90915081906110da565b015190508680610fe5565b90601f198316916015850160005260206000209260005b81811061116c575092600192859260189660e0989610611153575b505050811b016015820155610ffd565b015160001960f88460031b161c19169055868080611143565b92936020600181928786015181550195019301611128565b601584016000526020600020601f840160051c810191602085106111c5575b601f0160051c01905b8181106111b95750610fc5565b600081556001016111ac565b90915081906111a3565b015190508480610f81565b6014830160005260206000209060005b601f19841681106112305750600193949583601f19811610611217575b505050811b016014820155610f99565b015160001960f88460031b161c19169055848080611207565b9091602060018192858a0151815501930191016111ea565b601483016000526020600020601f830160051c810160208410611288575b601f830160051c8201811061127c575050610f67565b60008155600101611266565b5080611266565b015190508480610f23565b6013840160005260206000209060005b601f19841681106112f05750600193949583601f198116106112d7575b505050811b016013830155610f3b565b015160001960f88460031b161c191690558480806112c7565b9091602060018192858a0151815501930191016112aa565b601384016000526020600020601f830160051c810160208410611348575b601f830160051c8201811061133c575050610f09565b60008155600101611326565b5080611326565b015190508480610ec5565b6012830160005260206000209060005b601f19841681106113b05750600193949583601f19811610611397575b505050811b016012820155610edd565b015160001960f88460031b161c19169055848080611387565b9091602060018192858a01518155019301910161136a565b601283016000526020600020601f830160051c810160208410611408575b601f830160051c820181106113fc575050610eab565b600081556001016113e6565b50806113e6565b015190508480610e67565b6011840160005260206000209060005b601f19841681106114705750600193949583601f19811610611457575b505050811b016011830155610e7f565b015160001960f88460031b161c19169055848080611447565b9091602060018192858a01518155019301910161142a565b601184016000526020600020601f830160051c8101602084106114c8575b601f830160051c820181106114bc575050610e4d565b600081556001016114a6565b50806114a6565b3461018e57604036600319011261018e576114e8614c61565b600435600052600060205260406000209060018060a01b0316600052602052602060ff604060002054166040519015158152f35b3461018e5760208060031936011261018e57602561153b600435614f44565b500154906115a0602161155b600a6115548187046157fb565b95066157fb565b9360405194816115748793518092888087019101614c8d565b8201601760f91b8682015261159182518093888785019101614c8d565b01036001810185520183614b94565b610cf5604051928284938452830190614cb0565b3461018e5760208060031936011261018e5760226115d3600435614f44565b500154906115a0602161155b60646115548187046157fb565b3461018e5760c036600319011261018e576004356001600160401b03811161018e5761161c903690600401614bd0565b6024356001600160401b03811161018e5761163b903690600401614bd0565b906044356001600160401b03811161018e5761165b903690600401614bd0565b6064356001600160401b03811161018e5761167a903690600401614bd0565b60a4356001600160401b03811161018e57611699903690600401614bd0565b3360009081527fa51945ecba8f4c6b5cca29605887192f197979d006cd586a7af80838543824c860205260409020549092907f7c6181838a71a779e445600d4c6ecbe16bacf2b3c5bda69c29fada66d1b645d19060ff16156135b15750600154946040519461170786614b27565b8552602085015260408401526060830152608435608083015260a082015260405161173181614b42565b6000815260405161174181614b79565b60008152602082015260405161175681614b79565b60008152604082015260405161176b81614b79565b60008152606082015260405161178081614b0c565b6000815260405161179081614b79565b6000815260208201526040516117a581614b79565b6000815260408201526000606082015260006080820152600060a0820152600060c08201526040516117d681614b5d565b6040516117e281614b79565b6000815281526040516117f481614b79565b60008152602082015260405161180981614b79565b60008152604082015260405161181e81614b79565b60008152606082015260405161183381614b79565b600081526080820152600060a0820152600060c082015260405161185681614b79565b6000815260e08201526040519161186c83614b0c565b60405161187881614b79565b60008152835260405161188a81614b79565b600081526020840152600060408401526040516118a681614b79565b60008152606084015260006080840152600060a0840152600060c0840152604051936118d185614b0c565b6040516118dd81614b79565b6000815285526040516118ef81614b79565b6000815260208601526000604086015260405161190b81614b79565b60008152606086015260405161192081614b79565b600081526080860152600060a0860152600060c08601526040519561194487614b0c565b8652602086015260408501526060840152608083015260a0820152600060c0820152600160401b821015610400576001820160015561198282614f44565b91909161359b57805180518051906001600160401b0382116104005781906119aa8654614f7f565b601f811161354b575b50602090601f83116001146134df576000926134d4575b50508160011b916000199060031b1c19161783555b60208101518051906001600160401b038211610400578190611a046001870154614f7f565b601f8111613481575b50602090601f831160011461340f57600092613404575b50508160011b916000199060031b1c19161760018401555b60408101518051906001600160401b038211610400578190611a616002870154614f7f565b601f81116133b1575b50602090601f831160011461333f57600092613334575b50508160011b916000199060031b1c19161760028401555b60608101518051906001600160401b03821161040057611abc6003860154614f7f565b601f81116132ed575b50602090601f831160011461327a5760a09392916000918361326f575b50508160011b916000199060031b1c19161760038501555b6080810151600485015501519283516001600160401b03811161040057611b246005850154614f7f565b601f8111613228575b506020601f82116001146131b95781929394956000926131ae575b50508160011b916000199060031b1c19161760058401555b60208201518051600685015560208101518051906001600160401b038211610400578190611b916007880154614f7f565b601f811161315b575b50602090601f83116001146130e9576000926130de575b50508160011b916000199060031b1c19161760078501555b60408101518051906001600160401b03821161040057611bec6008870154614f7f565b601f8111613097575b50602090601f831160011461302457606093929160009183613019575b50508160011b916000199060031b1c19161760088601555b01519283516001600160401b03811161040057611c4a6009830154614f7f565b601f8111612fd2575b506020601f8211600114612f63578192939495600092612f58575b50508160011b916000199060031b1c19161760098201555b60408301518051600a83015560208101518051906001600160401b038211610400578190611cb7600b860154614f7f565b601f8111612f05575b50602090601f8311600114612e9357600092612e88575b50508160011b916000199060031b1c191617600b8301555b60408101518051906001600160401b03821161040057611d12600c850154614f7f565b601f8111612e41575b50602090601f8311600114612dce5760c093929160009183612dc3575b50508160011b916000199060031b1c191617600c8401555b6060810151600d8401556080810151600e84015560a0810151600f84015501516010820155606083015180518051906001600160401b038211610400578190611d9c6011860154614f7f565b601f8111612d70575b50602090601f8311600114612cfe57600092612cf3575b50508160011b916000199060031b1c19161760118301555b60208101518051906001600160401b038211610400578190611df96012860154614f7f565b601f8111612ca0575b50602090601f8311600114612c2e57600092612c23575b50508160011b916000199060031b1c19161760128301555b60408101518051906001600160401b038211610400578190611e566013860154614f7f565b601f8111612bd0575b50602090601f8311600114612b5e57600092612b53575b50508160011b916000199060031b1c19161760138301555b60608101518051906001600160401b038211610400578190611eb36014860154614f7f565b601f8111612b00575b50602090601f8311600114612a8e57600092612a83575b50508160011b916000199060031b1c19161760148301555b60808101518051906001600160401b03821161040057611f0e6015850154614f7f565b601f8111612a3c575b50602090601f83116001146129c95760e0939291600091836129be575b50508160011b916000199060031b1c19161760158401555b60a0810151601684015560c0810151601784015501519283516001600160401b03811161040057611f806018840154614f7f565b601f8111612977575b506020601f82116001146129085781929394956000926128fd575b50508160011b916000199060031b1c19161760188301555b608081015180518051906001600160401b038211610400578190611fe36019870154614f7f565b601f81116128aa575b50602090601f83116001146128385760009261282d575b50508160011b916000199060031b1c19161760198401555b60208101518051906001600160401b038211610400578190612040601a870154614f7f565b601f81116127da575b50602090601f83116001146127685760009261275d575b50508160011b916000199060031b1c191617601a8401555b6040810151601b84015560608101518051906001600160401b038211610400576120a5601c860154614f7f565b601f8111612716575b50602090601f83116001146126a0579180612114949260c094600092612695575b50508160011b916000199060031b1c191617601c8601555b6080810151601d86015560a0810151601e86015501511515601f84019060ff801983541691151516179055565b60a081015180518051906001600160401b03821161040057819061213b6020870154614f7f565b601f8111612642575b50602090601f83116001146125d0576000926125c5575b50508160011b916000199060031b1c19161760208401555b60208101518051906001600160401b0382116104005781906121986021870154614f7f565b601f8111612572575b50602090601f8311600114612500576000926124f5575b50508160011b916000199060031b1c19161760218401555b6040810151602284015560608101518051906001600160401b0382116104005781906121ff6023870154614f7f565b601f81116124a2575b50602090601f831160011461243057600092612425575b50508160011b916000199060031b1c19161760238401555b60808101518051906001600160401b0382116104005761225a6024860154614f7f565b601f81116123de575b50602090601f831160011461235f5760c06027948482956122de9998956122c795600092612354575b50508160011b916000199060031b1c19161760248801555b60a0810151602588015501511515602686019060ff801983541691151516179055565b0151151591019060ff801983541691151516179055565b336000526002602052604060002090815491600160401b831015610400578261230e916001602095018155614f2c565b81549060031b9083821b91600019901b19161790557f999f33d8277b5c68b479fda62fa5ee13eecf7d181a12666721ba4de1fcbfc14c82604051838152a1604051908152f35b015190508b8061228c565b906024860160005260206000209160005b601f19851681106123c657506027946001856122de9998956122c79560c098958996601f198116106123ad575b505050811b0160248801556122a4565b015160001960f88460031b161c191690558b808061239d565b91926020600181928685015181550194019201612370565b602486016000526020600020601f840160051c81016020851061241e575b601f830160051c82018110612412575050612263565b600081556001016123fc565b50806123fc565b01519050868061221f565b9250602386016000526020600020906000935b601f1984168510612487576001945083601f1981161061246e575b505050811b016023840155612237565b015160001960f88460031b161c1916905586808061245e565b81810151835560209485019460019093019290910190612443565b909150602386016000526020600020601f840160051c8101602085106124ee575b90849392915b601f830160051c820181106124df575050612208565b600081558594506001016124c9565b50806124c3565b0151905086806121b8565b9250602186016000526020600020906000935b601f1984168510612557576001945083601f1981161061253e575b505050811b0160218401556121d0565b015160001960f88460031b161c1916905586808061252e565b81810151835560209485019460019093019290910190612513565b909150602186016000526020600020601f840160051c8101602085106125be575b90849392915b601f830160051c820181106125af5750506121a1565b60008155859450600101612599565b5080612593565b01519050868061215b565b9250602086016000526020600020906000935b601f1984168510612627576001945083601f1981161061260e575b505050811b016020840155612173565b015160001960f88460031b161c191690558680806125fe565b818101518355602094850194600190930192909101906125e3565b909150602086016000526020600020601f840160051c81016020851061268e575b90849392915b601f830160051c8201811061267f575050612144565b60008155859450600101612669565b5080612663565b0151905088806120cf565b90601c860160005260206000209160005b601f19851681106126fe575092612114949260019260c09583601f198116106126e5575b505050811b01601c8601556120e7565b015160001960f88460031b161c191690558880806126d5565b919260206001819286850151815501940192016126b1565b601c86016000526020600020601f840160051c810160208510612756575b601f830160051c8201811061274a5750506120ae565b60008155600101612734565b5080612734565b015190508680612060565b9250601a86016000526020600020906000935b601f19841685106127bf576001945083601f198116106127a6575b505050811b01601a840155612078565b015160001960f88460031b161c19169055868080612796565b8181015183556020948501946001909301929091019061277b565b909150601a86016000526020600020601f840160051c810160208510612826575b90849392915b601f830160051c82018110612817575050612049565b60008155859450600101612801565b50806127fb565b015190508680612003565b9250601986016000526020600020906000935b601f198416851061288f576001945083601f19811610612876575b505050811b01601984015561201b565b015160001960f88460031b161c19169055868080612866565b8181015183556020948501946001909301929091019061284b565b909150601986016000526020600020601f840160051c8101602085106128f6575b90849392915b601f830160051c820181106128e7575050611fec565b600081558594506001016128d1565b50806128cb565b015190508580611fa4565b6018840160005260206000209060005b601f198416811061295f575060019394959683601f19811610612946575b505050811b016018830155611fbc565b015160001960f88460031b161c19169055858080612936565b9091602060018192858b015181550193019101612918565b601884016000526020600020601f830160051c8101602084106129b7575b601f830160051c820181106129ab575050611f89565b60008155600101612995565b5080612995565b015190508780611f34565b906015850160005260206000209160005b601f1985168110612a24575091839160019360e09695601f19811610612a0b575b505050811b016015840155611f4c565b015160001960f88460031b161c191690558780806129fb565b919260206001819286850151815501940192016129da565b601585016000526020600020601f840160051c810160208510612a7c575b601f830160051c82018110612a70575050611f17565b60008155600101612a5a565b5080612a5a565b015190508680611ed3565b9250601485016000526020600020906000935b601f1984168510612ae5576001945083601f19811610612acc575b505050811b016014830155611eeb565b015160001960f88460031b161c19169055868080612abc565b81810151835560209485019460019093019290910190612aa1565b909150601485016000526020600020601f840160051c810160208510612b4c575b90849392915b601f830160051c82018110612b3d575050611ebc565b60008155859450600101612b27565b5080612b21565b015190508680611e76565b9250601385016000526020600020906000935b601f1984168510612bb5576001945083601f19811610612b9c575b505050811b016013830155611e8e565b015160001960f88460031b161c19169055868080612b8c565b81810151835560209485019460019093019290910190612b71565b909150601385016000526020600020601f840160051c810160208510612c1c575b90849392915b601f830160051c82018110612c0d575050611e5f565b60008155859450600101612bf7565b5080612bf1565b015190508680611e19565b9250601285016000526020600020906000935b601f1984168510612c85576001945083601f19811610612c6c575b505050811b016012830155611e31565b015160001960f88460031b161c19169055868080612c5c565b81810151835560209485019460019093019290910190612c41565b909150601285016000526020600020601f840160051c810160208510612cec575b90849392915b601f830160051c82018110612cdd575050611e02565b60008155859450600101612cc7565b5080612cc1565b015190508680611dbc565b9250601185016000526020600020906000935b601f1984168510612d55576001945083601f19811610612d3c575b505050811b016011830155611dd4565b015160001960f88460031b161c19169055868080612d2c565b81810151835560209485019460019093019290910190612d11565b909150601185016000526020600020601f840160051c810160208510612dbc575b90849392915b601f830160051c82018110612dad575050611da5565b60008155859450600101612d97565b5080612d91565b015190508780611d38565b90600c850160005260206000209160005b601f1985168110612e29575091839160019360c09695601f19811610612e10575b505050811b01600c840155611d50565b015160001960f88460031b161c19169055878080612e00565b91926020600181928685015181550194019201612ddf565b600c85016000526020600020601f840160051c810160208510612e81575b601f830160051c82018110612e75575050611d1b565b60008155600101612e5f565b5080612e5f565b015190508680611cd7565b9250600b85016000526020600020906000935b601f1984168510612eea576001945083601f19811610612ed1575b505050811b01600b830155611cef565b015160001960f88460031b161c19169055868080612ec1565b81810151835560209485019460019093019290910190612ea6565b909150600b85016000526020600020601f840160051c810160208510612f51575b90849392915b601f830160051c82018110612f42575050611cc0565b60008155859450600101612f2c565b5080612f26565b015190508580611c6e565b6009830160005260206000209060005b601f1984168110612fba575060019394959683601f19811610612fa1575b505050811b016009820155611c86565b015160001960f88460031b161c19169055858080612f91565b9091602060018192858b015181550193019101612f73565b600983016000526020600020601f830160051c810160208410613012575b601f830160051c82018110613006575050611c53565b60008155600101612ff0565b5080612ff0565b015190508780611c12565b906008870160005260206000209160005b601f198516811061307f575091839160019360609695601f19811610613066575b505050811b016008860155611c2a565b015160001960f88460031b161c19169055878080613056565b91926020600181928685015181550194019201613035565b600887016000526020600020601f840160051c8101602085106130d7575b601f830160051c820181106130cb575050611bf5565b600081556001016130b5565b50806130b5565b015190508680611bb1565b9250600787016000526020600020906000935b601f1984168510613140576001945083601f19811610613127575b505050811b016007850155611bc9565b015160001960f88460031b161c19169055868080613117565b818101518355602094850194600190930192909101906130fc565b909150600787016000526020600020601f840160051c8101602085106131a7575b90849392915b601f830160051c82018110613198575050611b9a565b60008155859450600101613182565b508061317c565b015190508580611b48565b6005850160005260206000209060005b601f1984168110613210575060019394959683601f198116106131f7575b505050811b016005840155611b60565b015160001960f88460031b161c191690558580806131e7565b9091602060018192858b0151815501930191016131c9565b600585016000526020600020601f830160051c810160208410613268575b601f830160051c8201811061325c575050611b2d565b60008155600101613246565b5080613246565b015190508780611ae2565b906003860160005260206000209160005b601f19851681106132d5575091839160019360a09695601f198116106132bc575b505050811b016003850155611afa565b015160001960f88460031b161c191690558780806132ac565b9192602060018192868501518155019401920161328b565b600386016000526020600020601f840160051c81016020851061332d575b601f830160051c82018110613321575050611ac5565b6000815560010161330b565b508061330b565b015190508680611a81565b9250600286016000526020600020906000935b601f1984168510613396576001945083601f1981161061337d575b505050811b016002840155611a99565b015160001960f88460031b161c1916905586808061336d565b81810151835560209485019460019093019290910190613352565b909150600286016000526020600020601f840160051c8101602085106133fd575b90849392915b601f830160051c820181106133ee575050611a6a565b600081558594506001016133d8565b50806133d2565b015190508680611a24565b9250600186016000526020600020906000935b601f1984168510613466576001945083601f1981161061344d575b505050811b016001840155611a3c565b015160001960f88460031b161c1916905586808061343d565b81810151835560209485019460019093019290910190613422565b909150600186016000526020600020601f840160051c8101602085106134cd575b90849392915b601f830160051c820181106134be575050611a0d565b600081558594506001016134a8565b50806134a2565b0151905086806119ca565b9250856000526020600020906000935b601f1984168510613530576001945083601f19811610613517575b505050811b0183556119df565b015160001960f88460031b161c1916905586808061350a565b818101518355602094850194600190930192909101906134ef565b909150856000526020600020601f840160051c810160208510613594575b90849392915b601f830160051c820181106135855750506119b3565b6000815585945060010161356f565b5080613569565b634e487b7160e01b600052600060045260246000fd5b6135ba336156fe565b604051916135c783614b42565b6042835260208301906060368337835115610b2457603082538351600190811015610b2457607860218601536041905b8082116136bf57505061367b57604861364c9261365b92610a999560405195869376020b1b1b2b9b9a1b7b73a3937b61d1030b1b1b7bab73a1604d1b6020860152610a40815180926020603789019101614c8d565b01036028810184520182614b94565b60405162461bcd60e51b8152602060048201529182916024830190614cb0565b606460405162461bcd60e51b815260206004820152602060248201527f537472696e67733a20686578206c656e67746820696e73756666696369656e746044820152fd5b9091600f8116906010821015610b24576136f3916f181899199a1a9b1b9c1cb0b131b232b360811b901a610b1485896156ca565b906135f7565b3461018e57600036600319011261018e5760206040517f64400d3a08c4daec65d903c105722c54dce87fceeab435cccc2cdf93dda1d95e8152f35b3461018e5760208060031936011261018e576001600160a01b03613756614c77565b1660005260028152604060002090604051908181845491828152019360005281600020916000905b8282106137a157610cf58561379581890382614b94565b60405191829182614c26565b83548652948501946001938401939091019061377e565b3461018e57604036600319011261018e576137d1614c77565b6001600160a01b031660009081526002602052604090208054602435919082101561018e5760209161380291614f2c565b90546040519160031b1c8152f35b3461018e5760208060031936011261018e5760405160043561383182614b0c565b6040519161383e83614b27565b606090818452818585015281604085015281808501526080928385016000905260a0948386820152825260405161387481614b42565b60008152838782015283604082015283808201528683015260405161389881614b0c565b60008152838782015283604082015283810160009052848101600090528581016000905260c09281848093016000905260408201526040516138d981614b5d565b85815285898201528560408201528580820152858782015287810160009052828101600090528560e08201528582015260405161391581614b0c565b8581528589820152604081016000905285808201528681016000905287810160009052828101600090528682015260405161394f81614b0c565b85815285898201526040810160009052858082015285878201528781016000905282810160009052878201520160009052600154811061398e906157a9565b61399790614f44565b5090604051946139a686614b0c565b6139af8361504f565b86526139bd600684016150e4565b868801908152936139d0600a8501615140565b60408801908152956139e4601186016151ae565b8883019081526139f66019870161525a565b89830190815292613a08878c016152dc565b96858b019788526027015460ff1698868b019915158a526040519b8c9b818d5251908c0160e090526101008c01613a3e91614cd5565b9851601f198c8b03810160408e015299613a5791614d4b565b905191898c830301908c0152613a6c91614d94565b905191878a830301908a0152613a8191614ddf565b905191858883030190880152613a9691614e71565b9151928583030190850152613aaa91614ec9565b9051151560e08301520390f35b3461018e5760208060031936011261018e576004356001600160401b03811161018e57613ae8903690600401614bd0565b6001548282019290916000805b848110613b875750613b06906158f2565b9360009260005b858110613b225760405180610cf58982614c26565b6021613b48613b3083614f44565b50613b416040518094819301614fb9565b0382614b94565b8281519101208451842014613b66575b613b61906157ec565b613b0d565b93613b7f8186613b79613b61948b615924565b526157ec565b949050613b58565b6021613b95613b3083614f44565b8481519101208351872014613bb3575b613bae906157ec565b613af5565b90613bc0613bae916157ec565b919050613ba5565b3461018e57600036600319011261018e5760206040517fddaa901e2fe3bda354fe0ede2785152d5c109282a613fe024a056a3e66c41bb38152f35b3461018e5761010036600319011261018e576001600160401b0360043560243582811161018e57613c38903690600401614bd0565b60443583811161018e57613c50903690600401614bd0565b916084359184831161018e57613c6d613cc8933690600401614bd0565b613c75614c17565b91613c7e61536a565b613c8b60015485106157a9565b60405195613c9887614b0c565b865260208601526064356040860152606085015260a435608085015260c43560a0850152151560c0840152614f44565b5091815192835182811161040057613ce36019830154614f7f565b601f811161400a575b50602094601f8211600114613f9e57948192939495600092613f93575b50508160011b916000199060031b1c19161760198201555b602083015192835183811161040057613d3d601a840154614f7f565b601f8111613f48575b50602094601f8211600114613edc57948192939495600092613ed1575b50508160011b916000199060031b1c191617601a8301555b6040810151601b830155601c8201606082015193845190811161040057613da28254614f7f565b601f8111613e89575b506020601f8211600114613e19579181601f949260c09461052198600092613e0e575b50508160011b916000199060031b1c19161790555b6080810151601d85015560a0810151601e8501550151151591019060ff801983541691151516179055565b015190508880613dce565b601f198216958360005260206000209660005b818110613e715750926105219760c0959360019383601f999710613e58575b505050811b019055613de3565b015160001960f88460031b161c19169055888080613e4b565b83830151895560019098019760209384019301613e2c565b826000526020600020601f830160051c81019160208410613ec7575b601f0160051c01905b818110613ebb5750613dab565b60008155600101613eae565b9091508190613ea5565b015190508580613d63565b601f19821695601a850160005260206000209160005b888110613f3057508360019596979810613f17575b505050811b01601a830155613d7b565b015160001960f88460031b161c19169055858080613f07565b91926020600181928685015181550194019201613ef2565b601a84016000526020600020601f830160051c81019160208410613f89575b601f0160051c01905b818110613f7d5750613d46565b60008155600101613f70565b9091508190613f67565b015190508580613d09565b601f198216956019840160005260206000209160005b888110613ff257508360019596979810613fd9575b505050811b016019820155613d21565b015160001960f88460031b161c19169055858080613fc9565b91926020600181928685015181550194019201613fb4565b601983016000526020600020601f830160051c81016020841061404a575b601f830160051c8201811061403e575050613cec565b60008155600101614028565b5080614028565b3461018e57604036600319011261018e5761406a614c61565b336001600160a01b038216036140865761052190600435615656565b60405162461bcd60e51b815260206004820152602f60248201527f416363657373436f6e74726f6c3a2063616e206f6e6c792072656e6f756e636560448201526e103937b632b9903337b91039b2b63360891b6064820152608490fd5b3461018e5760208060031936011261018e576004356001600160401b03811161018e57614114903690600401614bd0565b6001548282019290916000805b8481106141955750614132906158f2565b9360009260005b85811061414e5760405180610cf58982614c26565b600861415c613b3083614f44565b828151910120845184201461417a575b614175906157ec565b614139565b9361418d8186613b79614175948b615924565b94905061416c565b60086141a3613b3083614f44565b84815191012083518720146141c1575b6141bc906157ec565b614121565b906141ce6141bc916157ec565b9190506141b3565b3461018e57604036600319011261018e576004356141f2614c61565b81600052600060205261420c600160406000200154615557565b81600052600060205260406000209060018060a01b0316908160005260205260ff604060002054161561423b57005b8160005260006020526040600020816000526020526040600020600160ff1982541617905533917f2f8788117e7eff1d82e926ec794901d17c78024a50270940304540a733656f0d600080a4005b3461018e57602036600319011261018e5760043560005260006020526020600160406000200154604051908152f35b3461018e5760208060031936011261018e576004356001600160401b03811161018e576142e9903690600401614bd0565b6001548282019290916000805b84811061436a5750614307906158f2565b9360009260005b8581106143235760405180610cf58982614c26565b600b614331613b3083614f44565b828151910120845184201461434f575b61434a906157ec565b61430e565b936143628186613b7961434a948b615924565b949050614341565b600b614378613b3083614f44565b8481519101208351872014614396575b614391906157ec565b6142f6565b906143a3614391916157ec565b919050614388565b3461018e5761010036600319011261018e576024356001600160401b03811161018e576143dc903690600401614bd0565b6044356001600160401b03811161018e576143fb903690600401614bd0565b906084356001600160401b03811161018e5761441b903690600401614bd0565b60a4356001600160401b03811161018e5761443a903690600401614bd0565b90614443614c17565b3360009081527f7c9cfd5c9c9d62e51fbe6b368de05771fae32fd3e53f7d6a93d114e5cd4134f060205260409020549093907f64400d3a08c4daec65d903c105722c54dce87fceeab435cccc2cdf93dda1d95e9060ff16156149e457506144af600154600435106157a9565b60276144bc600435614f44565b5001805460ff19166001179055604051946144d686614b0c565b8552602085015260643560408501526060840152608083015260c43560a0830152151560c0820152614509600435614f44565b509080519182516001600160401b0381116104005761452b6020830154614f7f565b601f811161499d575b506020601f821160011461492f5781929394600092614924575b50508160011b916000199060031b1c19161760208201555b60208201519182516001600160401b038111610400576145896021840154614f7f565b601f81116148dd575b506020601f821160011461486f5781929394600092614864575b50508160011b916000199060031b1c19161760218301555b6040810151602283015560608101519182516001600160401b038111610400576145f16023830154614f7f565b601f811161481d575b506020601f82116001146147af57819293946000926147a4575b50508160011b916000199060031b1c19161760238201555b602481019160808101519283516001600160401b038111610400576146518254614f7f565b601f811161475c575b506020601f82116001146146ec5791816026949260c0946146b3986000926146e1575b50508160011b916000199060031b1c19161790555b60a081015160258501550151151591019060ff801983541691151516179055565b7f9dbfd6d9f9da12db4beee656a713e0a12ad22682034b15a1aba4e2305738855b60206040516004358152a1005b01519050888061467d565b601f198216958360005260206000209660005b8181106147445750926146b39760c0959360019383602699971061472b575b505050811b019055614692565b015160001960f88460031b161c1916905588808061471e565b838301518955600190980197602093840193016146ff565b826000526020600020601f830160051c8101916020841061479a575b601f0160051c01905b81811061478e575061465a565b60008155600101614781565b9091508190614778565b015190508480614614565b6023830160005260206000209060005b601f19841681106148055750600193949583601f198116106147ec575b505050811b01602382015561462c565b015160001960f88460031b161c191690558480806147dc565b9091602060018192858a0151815501930191016147bf565b602383016000526020600020601f830160051c81016020841061485d575b601f830160051c820181106148515750506145fa565b6000815560010161483b565b508061483b565b0151905084806145ac565b6021840160005260206000209060005b601f19841681106148c55750600193949583601f198116106148ac575b505050811b0160218301556145c4565b015160001960f88460031b161c1916905584808061489c565b9091602060018192858a01518155019301910161487f565b602184016000526020600020601f830160051c81016020841061491d575b601f830160051c82018110614911575050614592565b600081556001016148fb565b50806148fb565b01519050848061454e565b6020830160005260206000209060005b601f19841681106149855750600193949583601f1981161061496c575b505050811b016020820155614566565b015160001960f88460031b161c1916905584808061495c565b9091602060018192858a01518155019301910161493f565b602083016000526020600020601f830160051c8101602084106149dd575b601f830160051c820181106149d1575050614534565b600081556001016149bb565b50806149bb565b6149ed336156fe565b604051916149fa83614b42565b6042835260208301906060368337835115610b2457603082538351600190811015610b2457607860218601536041905b808211614a7f57505061367b57604861364c9261365b92610a999560405195869376020b1b1b2b9b9a1b7b73a3937b61d1030b1b1b7bab73a1604d1b6020860152610a40815180926020603789019101614c8d565b9091600f8116906010821015610b2457614ab3916f181899199a1a9b1b9c1cb0b131b232b360811b901a610b1485896156ca565b90614a2a565b3461018e57602036600319011261018e576004359063ffffffff60e01b821680920361018e57602091637965db0b60e01b8114908115614afb575b5015158152f35b6301ffc9a760e01b14905083614af4565b60e081019081106001600160401b0382111761040057604052565b60c081019081106001600160401b0382111761040057604052565b608081019081106001600160401b0382111761040057604052565b61010081019081106001600160401b0382111761040057604052565b602081019081106001600160401b0382111761040057604052565b90601f801991011681019081106001600160401b0382111761040057604052565b6001600160401b03811161040057601f01601f191660200190565b81601f8201121561018e57803590614be782614bb5565b92614bf56040519485614b94565b8284526020838301011161018e57816000926020809301838601378301015290565b60e43590811515820361018e57565b6020908160408183019282815285518094520193019160005b828110614c4d575050505090565b835185529381019392810192600101614c3f565b602435906001600160a01b038216820361018e57565b600435906001600160a01b038216820361018e57565b60005b838110614ca05750506000910152565b8181015183820152602001614c90565b90602091614cc981518092818552858086019101614c8d565b601f01601f1916010190565b614d489160a0614d2d614d1b614d09614cf7865160c0875260c0870190614cb0565b60208701518682036020880152614cb0565b60408601518582036040870152614cb0565b60608501518482036060860152614cb0565b926080810151608084015201519060a0818403910152614cb0565b90565b614d4891815181526060614d83614d716020850151608060208601526080850190614cb0565b60408501518482036040860152614cb0565b920151906060818403910152614cb0565b908151815260c080614db8614d09602086015160e0602087015260e0860190614cb0565b93606081015160608501526080810151608085015260a081015160a0850152015191015290565b614d489160e0614e4c614e3a614e28614e16614e048751610100808952880190614cb0565b60208801518782036020890152614cb0565b60408701518682036040880152614cb0565b60608601518582036060870152614cb0565b60808501518482036080860152614cb0565b9260a081015160a084015260c081015160c084015201519060e0818403910152614cb0565b9060c080614eaa614e8e614cf7865160e0875260e0870190614cb0565b6040860151604086015260608601518582036060870152614cb0565b936080810151608085015260a081015160a08501520151151591015290565b9060c080614f17614f05614ee9614e04875160e0885260e0880190614cb0565b6040870151604087015260608701518682036060880152614cb0565b60808601518582036080870152614cb0565b9360a081015160a08501520151151591015290565b8054821015610b245760005260206000200190600090565b600154811015610b24576028906001600052027fb10e2d527612073b26eecdfd717e6a320cf44b4afac2b0732d9fcbe2b7fa0cf60190600090565b90600182811c92168015614faf575b6020831014614f9957565b634e487b7160e01b600052602260045260246000fd5b91607f1691614f8e565b9060009291805491614fca83614f7f565b91828252600193848116908160001461502c5750600114614fec575b50505050565b90919394506000526020928360002092846000945b838610615018575050505001019038808080614fe6565b805485870183015294019385908201615001565b9294505050602093945060ff191683830152151560051b01019038808080614fe6565b90600560a06040936150e085519161506683614b27565b6150d98397805161507b81613b418187614fb9565b8552805161509081613b418160018801614fb9565b602086015280516150a881613b418160028801614fb9565b8186015280516150bf81613b418160038801614fb9565b606086015260048301546080860152518096819301614fb9565b0384614b94565b0152565b90600360606040516150f581614b42565b6150e081958054835260405161511281613b418160018601614fb9565b602084015260405161512b81613b418160028601614fb9565b60408401526150d96040518096819301614fb9565b9060405161514d81614b0c565b60c0600682948054845260405161516b81613b418160018601614fb9565b602085015260405161518481613b418160028601614fb9565b60408501526003810154606085015260048101546080850152600581015460a08501520154910152565b90600760e06040936150e08551916151c583614b5d565b6150d9839780516151da81613b418187614fb9565b855280516151ef81613b418160018801614fb9565b6020860152805161520781613b418160028801614fb9565b81860152805161521e81613b418160038801614fb9565b6060860152805161523681613b418160048801614fb9565b6080860152600583015460a0860152600683015460c0860152518096819301614fb9565b9060405161526781614b0c565b60c060ff6006839560405161528081613b418185614fb9565b855260405161529681613b418160018601614fb9565b6020860152600281015460408601526040516152b981613b418160038601614fb9565b606086015260048101546080860152600581015460a08601520154161515910152565b9060409160c060ff60068551936152f285614b0c565b8496805161530481613b418186614fb9565b8652805161531981613b418160018701614fb9565b6020870152600282015481870152805161533a81613b418160038701614fb9565b60608701525161535181613b418160048601614fb9565b6080860152600581015460a08601520154161515910152565b3360009081527fd9ea67e2352cdb1ad304b09ae0bcc7c65e3e602b6a096510faec67fadd39a8a0602090815260408083205490927f7bc22597b932d7034dd2d258199090b37f9a59226c150db7fa910207f1c0ff9a9160ff16156153ce5750505050565b6153d7336156fe565b918451906153e482614b42565b604282528482019260603685378251156155435760308453825160019081101561552f5790607860218501536041915b8083116154d557505050615493576048610a9993869361547793615468985198899376020b1b1b2b9b9a1b7b73a3937b61d1030b1b1b7bab73a1604d1b8a860152610a40815180928c603789019101614c8d565b01036028810187520185614b94565b5192839262461bcd60e51b845260048401526024830190614cb0565b60648486519062461bcd60e51b825280600483015260248201527f537472696e67733a20686578206c656e67746820696e73756666696369656e746044820152fd5b909192600f8116601081101561551b5761551491906f181899199a1a9b1b9c1cb0b131b232b360811b901a61550a86886156ca565b5360041c936156db565b9190615414565b634e487b7160e01b84526032600452602484fd5b634e487b7160e01b82526032600452602482fd5b634e487b7160e01b81526032600452602490fd5b600090808252602090828252604092838120338252835260ff8482205416156155805750505050565b615589336156fe565b9184519061559682614b42565b604282528482019260603685378251156155435760308453825160019081101561552f5790607860218501536041915b80831161561a57505050615493576048610a9993869361547793615468985198899376020b1b1b2b9b9a1b7b73a3937b61d1030b1b1b7bab73a1604d1b8a860152610a40815180928c603789019101614c8d565b909192600f8116601081101561551b5761564f91906f181899199a1a9b1b9c1cb0b131b232b360811b901a61550a86886156ca565b91906155c6565b9060009180835282602052604083209160018060a01b03169182845260205260ff60408420541661568657505050565b80835282602052604083208284526020526040832060ff1981541690557ff6391f5c32d9c69d2a47ea670b442974b53935d1edc7fd64eb21e047a839171b339380a4565b908151811015610b24570160200190565b80156156e8576000190190565b634e487b7160e01b600052601160045260246000fd5b60405190606082018281106001600160401b0382111761040057604052602a8252602082016040368237825115610b2457603090538151600190811015610b2457607860218401536029905b80821161575a57505061367b5790565b9091600f81169060108210156157945761578e916f181899199a1a9b1b9c1cb0b131b232b360811b901a610b1485876156ca565b9061574a565b60246000634e487b7160e01b81526032600452fd5b156157b057565b60405162461bcd60e51b815260206004820152601460248201527310985d18da08191bd95cc81b9bdd08195e1a5cdd60621b6044820152606490fd5b60001981146156e85760010190565b80156158ad57806000908282935b61589957508061581884614bb5565b936158266040519586614b94565b808552601f1961583582614bb5565b01366020870137915b6158485750505090565b600a90603092828206840180941161588557615863906156db565b9260f81b6001600160f81b031916841a61587d84876156ca565b53048061583e565b634e487b7160e01b85526011600452602485fd5b926158a5600a916157ec565b930480615809565b50604051604081018181106001600160401b038211176104005760405260018152600360fc1b602082015290565b6001600160401b0381116104005760051b60200190565b906158fc826158db565b6159096040519182614b94565b828152809261591a601f19916158db565b0190602036910137565b8051821015610b245760209160051b01019056fea264697066735822122015af7495d8481f9f5663027d4d9a1917c31848b01b0f79b5892546a3e8cd5a7864736f6c634300081300332f8788117e7eff1d82e926ec794901d17c78024a50270940304540a733656f0d",
  "immutableReferences": {},
  "source": "// SPDX-License-Identifier: MIT\r\npragma solidity ^0.8.19;\r\n\r\nimport \"@openzeppelin/contracts/access/AccessControl.sol\";\r\n\r\ncontract OliveOilProductionChain is AccessControl {\r\n    bytes32 public constant FARMER_ROLE = keccak256(\"FARMER_ROLE\");\r\n    bytes32 public constant TRANSPORTER_ROLE = keccak256(\"TRANSPORTER_ROLE\");\r\n    bytes32 public constant PRESSING_ROLE = keccak256(\"PRESSING_ROLE\");\r\n    bytes32 public constant ONH_ROLE = keccak256(\"ONH_ROLE\");\r\n\r\n    struct Harvesting {\r\n        string farmer;\r\n        string date;\r\n        string location;\r\n        string method;\r\n        uint256 quantity;\r\n        string variety;  \r\n    }\r\n\r\n    struct Transportation {\r\n        uint duration;\r\n        string conditions;\r\n        string transporterId;\r\n        string vehicleType;\r\n    }\r\n\r\n    struct StorageBeforePressing {\r\n        uint duration;\r\n        string pressingId;\r\n        string conditions;\r\n        uint temperature;\r\n        uint humidity;\r\n        uint goodOlives; \r\n        uint badOlives;  \r\n    }\r\n\r\n    struct PressingProcess {\r\n        string date;\r\n        string pressingId;\r\n        string facility;\r\n        string method;\r\n        string conditions;\r\n        uint256 temperature;\r\n        uint256 pressure;\r\n        string operatorName;\r\n    }\r\n\r\n    struct StorageAfterPressing {\r\n        string tankId;\r\n        string pressingId;\r\n        uint duration;\r\n        string conditions;\r\n        uint256 temperature;\r\n        uint256 humidity;\r\n        bool inertAtmosphere;\r\n    }\r\n\r\n    struct QualityCheck {\r\n        string lab;\r\n        string onhId;\r\n        uint256 acidity;\r\n        string quality;\r\n        string area;\r\n        uint256 peroxideValue;\r\n        bool certifiedOrganic;\r\n    }\r\n\r\n    struct Batch {\r\n        Harvesting harvesting;\r\n        Transportation transportation;\r\n        StorageBeforePressing storageBeforePressing;\r\n        PressingProcess pressingProcess;\r\n        StorageAfterPressing storageAfterPressing;\r\n        QualityCheck qualityCheck;\r\n        bool isFinalized;\r\n    }\r\n\r\n    Batch[] public batches;\r\n    mapping(address => uint[]) public farmerBatches;\r\n\r\n    event NewBatch(uint256 batchId);\r\n    event FinalizedBatch(uint256 batchId);\r\n\r\n    constructor() {\r\n        _setupRole(DEFAULT_ADMIN_ROLE, 0x3d74F93668f357238030105a1A773E13b6d8d878);\r\n        _setupRole(FARMER_ROLE, 0xcDA995778Ee0d3e36b0860C76FE763223f53265E);\r\n        _setupRole(TRANSPORTER_ROLE, 0x6D2bD0ca60668083B7A173dB39948AA9F781689d);\r\n        _setupRole(PRESSING_ROLE, 0x80b0bD05A2580445E9d11D9D3308185D06C3bC21);\r\n        _setupRole(ONH_ROLE, 0x300abB72A5Cc05F809b68De4aFcd2Dd5B021FA21);\r\n    }\r\n\r\n    function createBatch(\r\n        string memory farmer,\r\n        string memory harvestDate,\r\n        string memory location,\r\n        string memory method,\r\n        uint256 quantity,\r\n        string memory variety\r\n    ) public onlyRole(FARMER_ROLE) returns (uint256 batchId) {\r\n        batchId = batches.length;\r\n        batches.push(\r\n            Batch({\r\n                harvesting: Harvesting(farmer, harvestDate, location, method, quantity, variety),\r\n                transportation: Transportation(0, \"\", \"\", \"\"),\r\n                storageBeforePressing: StorageBeforePressing(0, \"\", \"\", 0, 0, 0, 0), // Initialized with 0 for goodOlives and badOlives\r\n                pressingProcess: PressingProcess(\"\", \"\", \"\", \"\", \"\", 0, 0, \"\"),\r\n                storageAfterPressing: StorageAfterPressing(\"\", \"\", 0, \"\", 0, 0, false),\r\n                qualityCheck: QualityCheck(\"\", \"\", 0, \"\", \"\", 0, false),\r\n                isFinalized: false\r\n            })\r\n        );\r\n        farmerBatches[msg.sender].push(batchId);\r\n        emit NewBatch(batchId);\r\n    }\r\n\r\n    function logTransportation(\r\n        uint256 batchId,\r\n        uint duration,\r\n        string memory conditions,\r\n        string memory transporterId,\r\n        string memory vehicleType\r\n    ) public onlyRole(TRANSPORTER_ROLE) {\r\n        require(batchId < batches.length, \"Batch does not exist\");\r\n        require(bytes(batches[batchId].transportation.transporterId).length == 0, \"Batch already transported\");\r\n        batches[batchId].transportation = Transportation(duration, conditions, transporterId, vehicleType);\r\n    }\r\n\r\n    function logStorageBeforePressing(\r\n        uint256 batchId,\r\n        string memory pressingId,\r\n        uint duration,\r\n        string memory conditions,\r\n        uint temperature,\r\n        uint humidity,\r\n        uint goodOlives,  // Added parameter\r\n        uint badOlives    // Added parameter\r\n    ) public onlyRole(PRESSING_ROLE) {\r\n        require(batchId < batches.length, \"Batch does not exist\");\r\n        batches[batchId].storageBeforePressing = StorageBeforePressing(duration, pressingId, conditions, temperature, humidity, goodOlives, badOlives);\r\n    }\r\n\r\n    function logPressingProcess(\r\n        uint256 batchId,\r\n        string memory pressingId,\r\n        string memory date,\r\n        string memory facility,\r\n        string memory method,\r\n        string memory conditions,\r\n        uint temperature,\r\n        uint pressure,\r\n        string memory operatorName\r\n    ) public onlyRole(PRESSING_ROLE) {\r\n        require(batchId < batches.length, \"Batch does not exist\");\r\n        batches[batchId].pressingProcess = PressingProcess(date, pressingId, facility, method, conditions, temperature, pressure, operatorName);\r\n    }\r\n\r\n    function logStorageAfterPressing(\r\n        uint256 batchId,\r\n        string memory pressingId,\r\n        string memory tankId,\r\n        uint duration,\r\n        string memory conditions,\r\n        uint temperature,\r\n        uint humidity,\r\n        bool inertAtmosphere\r\n    ) public onlyRole(PRESSING_ROLE) {\r\n        require(batchId < batches.length, \"Batch does not exist\");\r\n        batches[batchId].storageAfterPressing = StorageAfterPressing(tankId, pressingId, duration, conditions, temperature, humidity, inertAtmosphere);\r\n    }\r\n\r\n    function logQualityCheck(\r\n        uint256 batchId,\r\n        string memory onhId,\r\n        string memory lab,\r\n        uint acidityScaled,\r\n        string memory quality,  // Added parameter\r\n        string memory area,     // Added parameter\r\n        uint peroxideValueScaled,\r\n        bool certifiedOrganic\r\n    ) public onlyRole(ONH_ROLE) {\r\n        require(batchId < batches.length, \"Batch does not exist\");\r\n        batches[batchId].isFinalized = true;\r\n        batches[batchId].qualityCheck = QualityCheck(lab, onhId, acidityScaled, quality, area, peroxideValueScaled, certifiedOrganic);\r\n        emit FinalizedBatch(batchId);\r\n    }\r\n\r\n    function getBatch(uint256 batchId) public view returns (Batch memory) {\r\n        require(batchId < batches.length, \"Batch does not exist\");\r\n        return batches[batchId];\r\n    }\r\n\r\n    function getHarvestDetails(uint256 batchId) public view returns (\r\n        string memory farmer,\r\n        string memory date,\r\n        string memory location,\r\n        string memory method\r\n    ) {\r\n        require(batchId < batches.length, \"Batch does not exist\");\r\n        Harvesting memory h = batches[batchId].harvesting;\r\n        return (h.farmer, h.date, h.location, h.method);\r\n    }\r\n\r\n\r\n    function getBatchCount() public view returns (uint) {\r\n        return batches.length;\r\n    }\r\n\r\n    function getBatchesByFarmer(address farmer) public view returns (uint[] memory) {\r\n        return farmerBatches[farmer];\r\n    }\r\n\r\n    function getAcidity(uint256 batchId) public view returns (string memory) {\r\n        uint acidityScaled = batches[batchId].qualityCheck.acidity;\r\n        return string(abi.encodePacked(uint2str(acidityScaled / 100), \".\", uint2str(acidityScaled % 100)));\r\n    }\r\n\r\n    function getPeroxideValue(uint256 batchId) public view returns (string memory) {\r\n        uint peroxideValueScaled = batches[batchId].qualityCheck.peroxideValue;\r\n        return string(abi.encodePacked(uint2str(peroxideValueScaled / 10), \".\", uint2str(peroxideValueScaled % 10)));\r\n    }\r\n\r\n    function uint2str(uint _i) internal pure returns (string memory) {\r\n        if (_i == 0) return \"0\";\r\n        uint j = _i;\r\n        uint len;\r\n        while (j != 0) {\r\n            len++;\r\n            j /= 10;\r\n        }\r\n        bytes memory bstr = new bytes(len);\r\n        uint k = len;\r\n        while (_i != 0) {\r\n            bstr[--k] = bytes1(uint8(48 + _i % 10));\r\n            _i /= 10;\r\n        }\r\n        return string(bstr);\r\n    }\r\n\r\n    function getBatchesByTransporter(string memory transporterId) public view returns (uint[] memory) {\r\n        uint count = 0;\r\n        for (uint i = 0; i < batches.length; i++) {\r\n            if (keccak256(bytes(batches[i].transportation.transporterId)) == keccak256(bytes(transporterId))) {\r\n                count++;\r\n            }\r\n        }\r\n        uint[] memory result = new uint[](count);\r\n        uint index = 0;\r\n        for (uint i = 0; i < batches.length; i++) {\r\n            if (keccak256(bytes(batches[i].transportation.transporterId)) == keccak256(bytes(transporterId))) {\r\n                result[index] = i;\r\n                index++;\r\n            }\r\n        }\r\n        return result;\r\n    }\r\n\r\n    function getBatchesByPressingId(string memory pressingId) public view returns (uint[] memory) {\r\n        uint count = 0;\r\n        for (uint i = 0; i < batches.length; i++) {\r\n            if (keccak256(bytes(batches[i].storageBeforePressing.pressingId)) == keccak256(bytes(pressingId))) {\r\n                count++;\r\n            }\r\n        }\r\n\r\n        uint[] memory result = new uint[](count);\r\n        uint index = 0;\r\n        for (uint i = 0; i < batches.length; i++) {\r\n            if (keccak256(bytes(batches[i].storageBeforePressing.pressingId)) == keccak256(bytes(pressingId))) {\r\n                result[index] = i;\r\n                index++;\r\n            }\r\n        }\r\n\r\n        return result;\r\n    }\r\n\r\n    function getBatchesByOnhId(string memory onhId) public view returns (uint[] memory) {\r\n        uint count = 0;\r\n        for (uint i = 0; i < batches.length; i++) {\r\n            if (keccak256(bytes(batches[i].qualityCheck.onhId)) == keccak256(bytes(onhId))) {\r\n                count++;\r\n            }\r\n        }\r\n        \r\n        uint[] memory result = new uint[](count);\r\n        uint index = 0;\r\n        for (uint i = 0; i < batches.length; i++) {\r\n            if (keccak256(bytes(batches[i].qualityCheck.onhId)) == keccak256(bytes(onhId))) {\r\n                result[index] = i;\r\n                index++;\r\n            }\r\n        }\r\n\r\n        return result;\r\n    }\r\n}",
  "sourcePath": "C:\\Users\\USER\\Desktop\\ProjetIA\\my-truffle-project\\contracts\\OliveOilProductionChain.sol",
  "compiler": {
    "name": "solc",
    "version": "0.8.19+commit.7dd6d404.Emscripten.clang"
  },
  "schemaVersion": "3.4.16",
  "updatedAt": "2025-10-03T13:02:28.357Z",
  "networkType": "ethereum",
  "devdoc": {
    "events": {
      "RoleAdminChanged(bytes32,bytes32,bytes32)": {
        "details": "Emitted when `newAdminRole` is set as ``role``'s admin role, replacing `previousAdminRole` `DEFAULT_ADMIN_ROLE` is the starting admin for all roles, despite {RoleAdminChanged} not being emitted signaling this. _Available since v3.1._"
      },
      "RoleGranted(bytes32,address,address)": {
        "details": "Emitted when `account` is granted `role`. `sender` is the account that originated the contract call, an admin role bearer except when using {AccessControl-_setupRole}."
      },
      "RoleRevoked(bytes32,address,address)": {
        "details": "Emitted when `account` is revoked `role`. `sender` is the account that originated the contract call:   - if using `revokeRole`, it is the admin role bearer   - if using `renounceRole`, it is the role bearer (i.e. `account`)"
      }
    },
    "kind": "dev",
    "methods": {
      "getRoleAdmin(bytes32)": {
        "details": "Returns the admin role that controls `role`. See {grantRole} and {revokeRole}. To change a role's admin, use {_setRoleAdmin}."
      },
      "grantRole(bytes32,address)": {
        "details": "Grants `role` to `account`. If `account` had not been already granted `role`, emits a {RoleGranted} event. Requirements: - the caller must have ``role``'s admin role. May emit a {RoleGranted} event."
      },
      "hasRole(bytes32,address)": {
        "details": "Returns `true` if `account` has been granted `role`."
      },
      "renounceRole(bytes32,address)": {
        "details": "Revokes `role` from the calling account. Roles are often managed via {grantRole} and {revokeRole}: this function's purpose is to provide a mechanism for accounts to lose their privileges if they are compromised (such as when a trusted device is misplaced). If the calling account had been revoked `role`, emits a {RoleRevoked} event. Requirements: - the caller must be `account`. May emit a {RoleRevoked} event."
      },
      "revokeRole(bytes32,address)": {
        "details": "Revokes `role` from `account`. If `account` had been granted `role`, emits a {RoleRevoked} event. Requirements: - the caller must have ``role``'s admin role. May emit a {RoleRevoked} event."
      },
      "supportsInterface(bytes4)": {
        "details": "See {IERC165-supportsInterface}."
      }
    },
    "version": 1
  },
  "userdoc": {
    "kind": "user",
    "methods": {},
    "version": 1
  }
}